{
  "contractName": "AlcToken",
  "abi": [
    {
      "inputs": [],
      "name": "name",
      "outputs": [
        {
          "internalType": "string",
          "name": "",
          "type": "string"
        }
      ],
      "stateMutability": "view",
      "type": "function",
      "constant": true
    },
    {
      "inputs": [],
      "name": "symbol",
      "outputs": [
        {
          "internalType": "string",
          "name": "",
          "type": "string"
        }
      ],
      "stateMutability": "view",
      "type": "function",
      "constant": true
    }
  ],
  "bytecode": "0x60806040526040518060400160405280600881526020017f416c63546f6b656e0000000000000000000000000000000000000000000000008152506000908051906020019061004f9291906100ae565b506040518060400160405280600381526020017f414c4300000000000000000000000000000000000000000000000000000000008152506001908051906020019061009b9291906100ae565b503480156100a857600080fd5b50610153565b828054600181600116156101000203166002900490600052602060002090601f016020900481019282601f106100ef57805160ff191683800117855561011d565b8280016001018555821561011d579182015b8281111561011c578251825591602001919060010190610101565b5b50905061012a919061012e565b5090565b61015091905b8082111561014c576000816000905550600101610134565b5090565b90565b6102b3806101626000396000f3fe608060405234801561001057600080fd5b50600436106100365760003560e01c806306fdde031461003b57806395d89b41146100be575b600080fd5b610043610141565b6040518080602001828103825283818151815260200191508051906020019080838360005b83811015610083578082015181840152602081019050610068565b50505050905090810190601f1680156100b05780820380516001836020036101000a031916815260200191505b509250505060405180910390f35b6100c66101df565b6040518080602001828103825283818151815260200191508051906020019080838360005b838110156101065780820151818401526020810190506100eb565b50505050905090810190601f1680156101335780820380516001836020036101000a031916815260200191505b509250505060405180910390f35b60008054600181600116156101000203166002900480601f0160208091040260200160405190810160405280929190818152602001828054600181600116156101000203166002900480156101d75780601f106101ac576101008083540402835291602001916101d7565b820191906000526020600020905b8154815290600101906020018083116101ba57829003601f168201915b505050505081565b60018054600181600116156101000203166002900480601f0160208091040260200160405190810160405280929190818152602001828054600181600116156101000203166002900480156102755780601f1061024a57610100808354040283529160200191610275565b820191906000526020600020905b81548152906001019060200180831161025857829003601f168201915b50505050508156fea264697066735822122098883eb154e1bd319323962a21605708a0517f2a438cf82dc2b82e68691bc64664736f6c63430006000033",
  "source": "// SPDX-License-Identifier: MIT\npragma solidity ^0.6.0;\n\ncontract AlcToken {\n    string public name = \"AlcToken\";\n    string public symbol = \"ALC\";\n}\n",
  "sourcePath": "/Users/atemaguer/Documents/Blockchain/alchemy-token/contracts/AlchemyToken.sol",
  "compiler": {
    "name": "solc",
    "version": "0.6.0+commit.26b70077.Emscripten.clang"
  },
  "schemaVersion": "3.2.0",
  "updatedAt": "2020-07-01T02:17:09.748Z",
  "networkType": "ethereum",
  "devdoc": {
    "methods": {}
  },
  "userdoc": {
    "methods": {}
  }
}